{
  "_format": "hh-sol-artifact-1",
  "contractName": "TenderContract",
  "sourceName": "contracts/TenderContract.sol",
  "abi": [
    {
      "anonymous": false,
      "inputs": [
        {
          "indexed": false,
          "internalType": "uint256",
          "name": "tenderId",
          "type": "uint256"
        },
        {
          "indexed": false,
          "internalType": "uint256",
          "name": "bidderId",
          "type": "uint256"
        }
      ],
      "name": "BidAdded",
      "type": "event"
    },
    {
      "anonymous": false,
      "inputs": [
        {
          "indexed": false,
          "internalType": "uint256",
          "name": "tenderId",
          "type": "uint256"
        },
        {
          "indexed": false,
          "internalType": "uint256",
          "name": "bidderId",
          "type": "uint256"
        },
        {
          "indexed": false,
          "internalType": "string",
          "name": "externalChecksum",
          "type": "string"
        },
        {
          "indexed": false,
          "internalType": "string",
          "name": "dKey",
          "type": "string"
        }
      ],
      "name": "BidderKeyRetrieved",
      "type": "event"
    },
    {
      "anonymous": false,
      "inputs": [
        {
          "indexed": false,
          "internalType": "uint256",
          "name": "tenderId",
          "type": "uint256"
        },
        {
          "indexed": false,
          "internalType": "uint256",
          "name": "createdTime",
          "type": "uint256"
        },
        {
          "indexed": false,
          "internalType": "uint256",
          "name": "startTime",
          "type": "uint256"
        },
        {
          "indexed": false,
          "internalType": "uint256",
          "name": "endTime",
          "type": "uint256"
        }
      ],
      "name": "TenderCreated",
      "type": "event"
    },
    {
      "anonymous": false,
      "inputs": [
        {
          "indexed": false,
          "internalType": "uint256",
          "name": "tenderId",
          "type": "uint256"
        },
        {
          "indexed": false,
          "internalType": "uint256[]",
          "name": "bidderIds",
          "type": "uint256[]"
        },
        {
          "indexed": false,
          "internalType": "string[]",
          "name": "externalChecksums",
          "type": "string[]"
        },
        {
          "indexed": false,
          "internalType": "string[]",
          "name": "dKeys",
          "type": "string[]"
        }
      ],
      "name": "TenderKeysRetrieved",
      "type": "event"
    },
    {
      "inputs": [
        {
          "internalType": "uint256",
          "name": "_tenderId",
          "type": "uint256"
        },
        {
          "internalType": "uint256",
          "name": "_startTime",
          "type": "uint256"
        },
        {
          "internalType": "uint256",
          "name": "_endTime",
          "type": "uint256"
        }
      ],
      "name": "createTender",
      "outputs": [],
      "stateMutability": "nonpayable",
      "type": "function"
    },
    {
      "inputs": [
        {
          "internalType": "uint256",
          "name": "_tenderId",
          "type": "uint256"
        },
        {
          "internalType": "uint256",
          "name": "_bidderId",
          "type": "uint256"
        },
        {
          "internalType": "string",
          "name": "_dKey",
          "type": "string"
        },
        {
          "internalType": "string",
          "name": "_checksum",
          "type": "string"
        }
      ],
      "name": "placeBid",
      "outputs": [],
      "stateMutability": "nonpayable",
      "type": "function"
    },
    {
      "inputs": [
        {
          "internalType": "uint256",
          "name": "_tenderId",
          "type": "uint256"
        },
        {
          "internalType": "uint256",
          "name": "_bidderId",
          "type": "uint256"
        },
        {
          "internalType": "string",
          "name": "_checksum",
          "type": "string"
        }
      ],
      "name": "retrieveDKey",
      "outputs": [],
      "stateMutability": "nonpayable",
      "type": "function"
    },
    {
      "inputs": [
        {
          "internalType": "uint256",
          "name": "_tenderId",
          "type": "uint256"
        },
        {
          "internalType": "uint256[]",
          "name": "_bidderIds",
          "type": "uint256[]"
        },
        {
          "internalType": "string[]",
          "name": "_checksums",
          "type": "string[]"
        }
      ],
      "name": "retrieveDKeysForTender",
      "outputs": [],
      "stateMutability": "nonpayable",
      "type": "function"
    }
  ],
  "bytecode": "0x608060405234801561001057600080fd5b50611f44806100206000396000f3fe608060405234801561001057600080fd5b506004361061004c5760003560e01c8063875691ae14610051578063a8b327271461006d578063ada6565114610089578063fa5f20d0146100a5575b600080fd5b61006b60048036038101906100669190610d41565b6100c1565b005b61008760048036038101906100829190610df9565b610229565b005b6100a3600480360381019061009e9190610ea0565b6104d0565b005b6100bf60048036038101906100ba9190610fc0565b6107bd565b005b6100ca83610c1a565b1561010a576040517f08c379a0000000000000000000000000000000000000000000000000000000008152600401610101906110b2565b60405180910390fd5b81421061014c576040517f08c379a00000000000000000000000000000000000000000000000000000000081526004016101439061111e565b60405180910390fd5b80421061018e576040517f08c379a00000000000000000000000000000000000000000000000000000000081526004016101859061118a565b60405180910390fd5b60008390806001815401808255809150506001900390600052602060002001600090919091909150558160016000858152602001908152602001600020819055508060026000858152602001908152602001600020819055507f4a9dc85c516c580603e1d055caeb1fffb45a55774e0bbcf8c85a48b208b70d7a8342848460405161021c94939291906111b9565b60405180910390a1505050565b61023286610c1a565b610271576040517f08c379a00000000000000000000000000000000000000000000000000000000081526004016102689061124a565b60405180910390fd5b61027b8686610c7c565b156102bb576040517f08c379a00000000000000000000000000000000000000000000000000000000081526004016102b2906112b6565b60405180910390fd5b60016000878152602001908152602001600020544211610310576040517f08c379a000000000000000000000000000000000000000000000000000000000815260040161030790611322565b60405180910390fd5b60026000878152602001908152602001600020544210610365576040517f08c379a000000000000000000000000000000000000000000000000000000000815260040161035c9061138e565b60405180910390fd5b60046000878152602001908152602001600020859080600181540180825580915050600190039060005260206000200160009091909190915055604051806040016040528085858080601f016020809104026020016040519081016040528093929190818152602001838380828437600081840152601f19601f82011690508083019250505050505050815260200183838080601f016020809104026020016040519081016040528093929190818152602001838380828437600081840152601f19601f82011690508083019250505050505050815250600360008881526020019081526020016000206000878152602001908152602001600020600082015181600001908161047591906115f4565b50602082015181600101908161048b91906115f4565b509050507f12d0d4379caab65a5fb263863b61c9678ee940414e7ca9e082b234f02da32d6f86866040516104c09291906116c6565b60405180910390a1505050505050565b6104d984610c1a565b610518576040517f08c379a000000000000000000000000000000000000000000000000000000000815260040161050f9061124a565b60405180910390fd5b6105228484610c7c565b610561576040517f08c379a00000000000000000000000000000000000000000000000000000000081526004016105589061173b565b60405180910390fd5b60016000858152602001908152602001600020544210156105b7576040517f08c379a00000000000000000000000000000000000000000000000000000000081526004016105ae90611322565b60405180910390fd5b600260008581526020019081526020016000205442101561060d576040517f08c379a0000000000000000000000000000000000000000000000000000000008152600401610604906117a7565b60405180910390fd5b6003600085815260200190815260200160002060008481526020019081526020016000206001016040516020016106449190611855565b60405160208183030381529060405280519060200120828260405160200161066d9291906118a0565b60405160208183030381529060405280519060200120146106c3576040517f08c379a00000000000000000000000000000000000000000000000000000000081526004016106ba90611905565b60405180910390fd5b600060036000868152602001908152602001600020600085815260200190815260200160002060000180546106f790611417565b80601f016020809104026020016040519081016040528092919081815260200182805461072390611417565b80156107705780601f1061074557610100808354040283529160200191610770565b820191906000526020600020905b81548152906001019060200180831161075357829003601f168201915b505050505090507f45871d6f6b7a0c47eca519e1f69a32835ec45a3cc51e1fe3e119db5408443ded85858585856040516107ae9594939291906119c6565b60405180910390a15050505050565b6107c685610c1a565b610805576040517f08c379a00000000000000000000000000000000000000000000000000000000081526004016107fc9061124a565b60405180910390fd5b600160008681526020019081526020016000205442101561085b576040517f08c379a000000000000000000000000000000000000000000000000000000000815260040161085290611322565b60405180910390fd5b60026000868152602001908152602001600020544210156108b1576040517f08c379a00000000000000000000000000000000000000000000000000000000081526004016108a8906117a7565b60405180910390fd5b8181905084849050146108f9576040517f08c379a00000000000000000000000000000000000000000000000000000000081526004016108f090611a67565b60405180910390fd5b60008484905067ffffffffffffffff811115610918576109176113b9565b5b60405190808252806020026020018201604052801561094b57816020015b60608152602001906001900390816109365790505b50905060005b85859050811015610bd057600086868381811061097157610970611a87565b5b9050602002013590506000600360008a8152602001908152602001600020600083815260200190815260200160002060010180546109ae90611417565b80601f01602080910402602001604051908101604052809291908181526020018280546109da90611417565b8015610a275780601f106109fc57610100808354040283529160200191610a27565b820191906000526020600020905b815481529060010190602001808311610a0a57829003601f168201915b50505050509050610a388983610c7c565b8015610ab4575080604051602001610a509190611ae7565b60405160208183030381529060405280519060200120868685818110610a7957610a78611a87565b5b9050602002810190610a8b9190611b0d565b604051602001610a9c9291906118a0565b60405160208183030381529060405280519060200120145b15610b8c57600360008a815260200190815260200160002060008381526020019081526020016000206000018054610aeb90611417565b80601f0160208091040260200160405190810160405280929190818152602001828054610b1790611417565b8015610b645780601f10610b3957610100808354040283529160200191610b64565b820191906000526020600020905b815481529060010190602001808311610b4757829003601f168201915b5050505050848481518110610b7c57610b7b611a87565b5b6020026020010181905250610bbb565b60405180602001604052806000815250848481518110610baf57610bae611a87565b5b60200260200101819052505b50508080610bc890611b9f565b915050610951565b507ff647d0d307f0958dc0400175d98cd20d4ae0298d33465a32f240d7fcf510bcff868686868686604051610c0a96959493929190611eb0565b60405180910390a1505050505050565b600080600090505b600080549050811015610c715760008181548110610c4357610c42611a87565b5b90600052602060002001548303610c5e576001915050610c77565b8080610c6990611b9f565b915050610c22565b50600090505b919050565b600080600090505b6004600085815260200190815260200160002080549050811015610cf557600460008581526020019081526020016000208181548110610cc757610cc6611a87565b5b90600052602060002001548303610ce2576001915050610cfb565b8080610ced90611b9f565b915050610c84565b50600090505b92915050565b600080fd5b600080fd5b6000819050919050565b610d1e81610d0b565b8114610d2957600080fd5b50565b600081359050610d3b81610d15565b92915050565b600080600060608486031215610d5a57610d59610d01565b5b6000610d6886828701610d2c565b9350506020610d7986828701610d2c565b9250506040610d8a86828701610d2c565b9150509250925092565b600080fd5b600080fd5b600080fd5b60008083601f840112610db957610db8610d94565b5b8235905067ffffffffffffffff811115610dd657610dd5610d99565b5b602083019150836001820283011115610df257610df1610d9e565b5b9250929050565b60008060008060008060808789031215610e1657610e15610d01565b5b6000610e2489828a01610d2c565b9650506020610e3589828a01610d2c565b955050604087013567ffffffffffffffff811115610e5657610e55610d06565b5b610e6289828a01610da3565b9450945050606087013567ffffffffffffffff811115610e8557610e84610d06565b5b610e9189828a01610da3565b92509250509295509295509295565b60008060008060608587031215610eba57610eb9610d01565b5b6000610ec887828801610d2c565b9450506020610ed987828801610d2c565b935050604085013567ffffffffffffffff811115610efa57610ef9610d06565b5b610f0687828801610da3565b925092505092959194509250565b60008083601f840112610f2a57610f29610d94565b5b8235905067ffffffffffffffff811115610f4757610f46610d99565b5b602083019150836020820283011115610f6357610f62610d9e565b5b9250929050565b60008083601f840112610f8057610f7f610d94565b5b8235905067ffffffffffffffff811115610f9d57610f9c610d99565b5b602083019150836020820283011115610fb957610fb8610d9e565b5b9250929050565b600080600080600060608688031215610fdc57610fdb610d01565b5b6000610fea88828901610d2c565b955050602086013567ffffffffffffffff81111561100b5761100a610d06565b5b61101788828901610f14565b9450945050604086013567ffffffffffffffff81111561103a57611039610d06565b5b61104688828901610f6a565b92509250509295509295909350565b600082825260208201905092915050565b7f54656e64657220616c7265616479206578697374730000000000000000000000600082015250565b600061109c601583611055565b91506110a782611066565b602082019050919050565b600060208201905081810360008301526110cb8161108f565b9050919050565b7f496e76616c69642053746172742054696d650000000000000000000000000000600082015250565b6000611108601283611055565b9150611113826110d2565b602082019050919050565b60006020820190508181036000830152611137816110fb565b9050919050565b7f496e76616c696420456e642054696d6500000000000000000000000000000000600082015250565b6000611174601083611055565b915061117f8261113e565b602082019050919050565b600060208201905081810360008301526111a381611167565b9050919050565b6111b381610d0b565b82525050565b60006080820190506111ce60008301876111aa565b6111db60208301866111aa565b6111e860408301856111aa565b6111f560608301846111aa565b95945050505050565b7f496e76616c69642054656e646572204944000000000000000000000000000000600082015250565b6000611234601183611055565b915061123f826111fe565b602082019050919050565b6000602082019050818103600083015261126381611227565b9050919050565b7f42696420616c7265616479206578697374730000000000000000000000000000600082015250565b60006112a0601283611055565b91506112ab8261126a565b602082019050919050565b600060208201905081810360008301526112cf81611293565b9050919050565b7f54656e646572206973206e6f7420737461727465640000000000000000000000600082015250565b600061130c601583611055565b9150611317826112d6565b602082019050919050565b6000602082019050818103600083015261133b816112ff565b9050919050565b7f54656e6465722068617320656e64656400000000000000000000000000000000600082015250565b6000611378601083611055565b915061138382611342565b602082019050919050565b600060208201905081810360008301526113a78161136b565b9050919050565b600081519050919050565b7f4e487b7100000000000000000000000000000000000000000000000000000000600052604160045260246000fd5b7f4e487b7100000000000000000000000000000000000000000000000000000000600052602260045260246000fd5b6000600282049050600182168061142f57607f821691505b602082108103611442576114416113e8565b5b50919050565b60008190508160005260206000209050919050565b60006020601f8301049050919050565b600082821b905092915050565b6000600883026114aa7fffffffffffffffffffffffffffffffffffffffffffffffffffffffffffffffff8261146d565b6114b4868361146d565b95508019841693508086168417925050509392505050565b6000819050919050565b60006114f16114ec6114e784610d0b565b6114cc565b610d0b565b9050919050565b6000819050919050565b61150b836114d6565b61151f611517826114f8565b84845461147a565b825550505050565b600090565b611534611527565b61153f818484611502565b505050565b5b818110156115635761155860008261152c565b600181019050611545565b5050565b601f8211156115a85761157981611448565b6115828461145d565b81016020851015611591578190505b6115a561159d8561145d565b830182611544565b50505b505050565b600082821c905092915050565b60006115cb600019846008026115ad565b1980831691505092915050565b60006115e483836115ba565b9150826002028217905092915050565b6115fd826113ae565b67ffffffffffffffff811115611616576116156113b9565b5b6116208254611417565b61162b828285611567565b600060209050601f83116001811461165e576000841561164c578287015190505b61165685826115d8565b8655506116be565b601f19841661166c86611448565b60005b828110156116945784890151825560018201915060208501945060208101905061166f565b868310156116b157848901516116ad601f8916826115ba565b8355505b6001600288020188555050505b505050505050565b60006040820190506116db60008301856111aa565b6116e860208301846111aa565b9392505050565b7f496e76616c696420426964646572204944000000000000000000000000000000600082015250565b6000611725601183611055565b9150611730826116ef565b602082019050919050565b6000602082019050818103600083015261175481611718565b9050919050565b7f54656e646572206973207374696c6c2061637469766500000000000000000000600082015250565b6000611791601683611055565b915061179c8261175b565b602082019050919050565b600060208201905081810360008301526117c081611784565b9050919050565b600081905092915050565b600081546117df81611417565b6117e981866117c7565b9450600182166000811461180457600181146118195761184c565b60ff198316865281151582028601935061184c565b61182285611448565b60005b8381101561184457815481890152600182019150602081019050611825565b838801955050505b50505092915050565b600061186182846117d2565b915081905092915050565b82818337600083830152505050565b600061188783856117c7565b935061189483858461186c565b82840190509392505050565b60006118ad82848661187b565b91508190509392505050565b7f496e76616c696420636865636b73756d00000000000000000000000000000000600082015250565b60006118ef601083611055565b91506118fa826118b9565b602082019050919050565b6000602082019050818103600083015261191e816118e2565b9050919050565b6000601f19601f8301169050919050565b60006119428385611055565b935061194f83858461186c565b61195883611925565b840190509392505050565b60005b83811015611981578082015181840152602081019050611966565b60008484015250505050565b6000611998826113ae565b6119a28185611055565b93506119b2818560208601611963565b6119bb81611925565b840191505092915050565b60006080820190506119db60008301886111aa565b6119e860208301876111aa565b81810360408301526119fb818587611936565b90508181036060830152611a0f818461198d565b90509695505050505050565b7f417272617973206c656e677468206d69736d6174636800000000000000000000600082015250565b6000611a51601683611055565b9150611a5c82611a1b565b602082019050919050565b60006020820190508181036000830152611a8081611a44565b9050919050565b7f4e487b7100000000000000000000000000000000000000000000000000000000600052603260045260246000fd5b6000611ac1826113ae565b611acb81856117c7565b9350611adb818560208601611963565b80840191505092915050565b6000611af38284611ab6565b915081905092915050565b600080fd5b600080fd5b600080fd5b60008083356001602003843603038112611b2a57611b29611afe565b5b80840192508235915067ffffffffffffffff821115611b4c57611b4b611b03565b5b602083019250600182023603831315611b6857611b67611b08565b5b509250929050565b7f4e487b7100000000000000000000000000000000000000000000000000000000600052601160045260246000fd5b6000611baa82610d0b565b91507fffffffffffffffffffffffffffffffffffffffffffffffffffffffffffffffff8203611bdc57611bdb611b70565b5b600182019050919050565b600082825260208201905092915050565b600080fd5b82818337505050565b6000611c128385611be7565b93507f07ffffffffffffffffffffffffffffffffffffffffffffffffffffffffffffff831115611c4557611c44611bf8565b5b602083029250611c56838584611bfd565b82840190509392505050565b600082825260208201905092915050565b6000819050919050565b600082825260208201905092915050565b6000611c9a8385611c7d565b9350611ca783858461186c565b611cb083611925565b840190509392505050565b6000611cc8848484611c8e565b90509392505050565b600080fd5b600080fd5b600080fd5b60008083356001602003843603038112611cfd57611cfc611cdb565b5b83810192508235915060208301925067ffffffffffffffff821115611d2557611d24611cd1565b5b600182023603831315611d3b57611d3a611cd6565b5b509250929050565b6000602082019050919050565b6000611d5c8385611c62565b935083602084028501611d6e84611c73565b8060005b87811015611db4578484038952611d898284611ce0565b611d94868284611cbb565b9550611d9f84611d43565b935060208b019a505050600181019050611d72565b50829750879450505050509392505050565b600081519050919050565b6000819050602082019050919050565b6000611dec826113ae565b611df68185611c7d565b9350611e06818560208601611963565b611e0f81611925565b840191505092915050565b6000611e268383611de1565b905092915050565b6000602082019050919050565b6000611e4682611dc6565b611e508185611c62565b935083602082028501611e6285611dd1565b8060005b85811015611e9e5784840389528151611e7f8582611e1a565b9450611e8a83611e2e565b925060208a01995050600181019050611e66565b50829750879550505050505092915050565b6000608082019050611ec560008301896111aa565b8181036020830152611ed8818789611c06565b90508181036040830152611eed818587611d50565b90508181036060830152611f018184611e3b565b905097965050505050505056fea2646970667358221220680e3456b92ad8a35a9dff7e482f7fd52e534c7d4dfcf58aad6c5383e93252a264736f6c63430008130033",
  "linkReferences": {},
  "deployedLinkReferences": {}
}