{
  "_format": "hh-sol-artifact-1",
  "contractName": "NewTender",
  "sourceName": "contracts/NewTender.sol",
  "abi": [
    {
      "anonymous": false,
      "inputs": [
        {
          "indexed": false,
          "internalType": "uint256",
          "name": "id",
          "type": "uint256"
        },
        {
          "indexed": false,
          "internalType": "string",
          "name": "name",
          "type": "string"
        },
        {
          "indexed": false,
          "internalType": "string",
          "name": "description",
          "type": "string"
        },
        {
          "indexed": false,
          "internalType": "uint256",
          "name": "endTime",
          "type": "uint256"
        }
      ],
      "name": "TenderPlaced",
      "type": "event"
    },
    {
      "inputs": [
        {
          "internalType": "string",
          "name": "_name",
          "type": "string"
        },
        {
          "internalType": "string",
          "name": "_description",
          "type": "string"
        },
        {
          "internalType": "uint256",
          "name": "_endTime",
          "type": "uint256"
        }
      ],
      "name": "placeTender",
      "outputs": [],
      "stateMutability": "nonpayable",
      "type": "function"
    },
    {
      "inputs": [
        {
          "internalType": "uint256",
          "name": "",
          "type": "uint256"
        }
      ],
      "name": "tenders",
      "outputs": [
        {
          "internalType": "uint256",
          "name": "id",
          "type": "uint256"
        },
        {
          "internalType": "string",
          "name": "name",
          "type": "string"
        },
        {
          "internalType": "string",
          "name": "description",
          "type": "string"
        },
        {
          "internalType": "uint256",
          "name": "endTime",
          "type": "uint256"
        }
      ],
      "stateMutability": "view",
      "type": "function"
    },
    {
      "inputs": [],
      "name": "tendersCount",
      "outputs": [
        {
          "internalType": "uint256",
          "name": "",
          "type": "uint256"
        }
      ],
      "stateMutability": "view",
      "type": "function"
    }
  ],
  "bytecode": "0x608060405234801561001057600080fd5b5061099e806100206000396000f3fe608060405234801561001057600080fd5b50600436106100415760003560e01c8063465e1def146100465780635cd4e14f146100795780638e48779c14610095575b600080fd5b610060600480360381019061005b9190610319565b6100b3565b60405161007094939291906103e5565b60405180910390f35b610093600480360381019061008e919061056d565b6101f3565b005b61009d6102c9565b6040516100aa91906105f8565b60405180910390f35b60006020528060005260406000206000915090508060000154908060010180546100dc90610642565b80601f016020809104026020016040519081016040528092919081815260200182805461010890610642565b80156101555780601f1061012a57610100808354040283529160200191610155565b820191906000526020600020905b81548152906001019060200180831161013857829003601f168201915b50505050509080600201805461016a90610642565b80601f016020809104026020016040519081016040528092919081815260200182805461019690610642565b80156101e35780601f106101b8576101008083540402835291602001916101e3565b820191906000526020600020905b8154815290600101906020018083116101c657829003601f168201915b5050505050908060030154905084565b60405180608001604052806001548152602001848152602001838152602001828152506000806001548152602001908152602001600020600082015181600001556020820151816001019081610249919061081f565b50604082015181600201908161025f919061081f565b50606082015181600301559050507f2acc887647506a077692bac9e4b802640cf2e457a92a018cc4cff80b5334184a6001548484846040516102a494939291906103e5565b60405180910390a1600160008154809291906102bf90610920565b9190505550505050565b60015481565b6000604051905090565b600080fd5b600080fd5b6000819050919050565b6102f6816102e3565b811461030157600080fd5b50565b600081359050610313816102ed565b92915050565b60006020828403121561032f5761032e6102d9565b5b600061033d84828501610304565b91505092915050565b61034f816102e3565b82525050565b600081519050919050565b600082825260208201905092915050565b60005b8381101561038f578082015181840152602081019050610374565b60008484015250505050565b6000601f19601f8301169050919050565b60006103b782610355565b6103c18185610360565b93506103d1818560208601610371565b6103da8161039b565b840191505092915050565b60006080820190506103fa6000830187610346565b818103602083015261040c81866103ac565b9050818103604083015261042081856103ac565b905061042f6060830184610346565b95945050505050565b600080fd5b600080fd5b7f4e487b7100000000000000000000000000000000000000000000000000000000600052604160045260246000fd5b61047a8261039b565b810181811067ffffffffffffffff8211171561049957610498610442565b5b80604052505050565b60006104ac6102cf565b90506104b88282610471565b919050565b600067ffffffffffffffff8211156104d8576104d7610442565b5b6104e18261039b565b9050602081019050919050565b82818337600083830152505050565b600061051061050b846104bd565b6104a2565b90508281526020810184848401111561052c5761052b61043d565b5b6105378482856104ee565b509392505050565b600082601f83011261055457610553610438565b5b81356105648482602086016104fd565b91505092915050565b600080600060608486031215610586576105856102d9565b5b600084013567ffffffffffffffff8111156105a4576105a36102de565b5b6105b08682870161053f565b935050602084013567ffffffffffffffff8111156105d1576105d06102de565b5b6105dd8682870161053f565b92505060406105ee86828701610304565b9150509250925092565b600060208201905061060d6000830184610346565b92915050565b7f4e487b7100000000000000000000000000000000000000000000000000000000600052602260045260246000fd5b6000600282049050600182168061065a57607f821691505b60208210810361066d5761066c610613565b5b50919050565b60008190508160005260206000209050919050565b60006020601f8301049050919050565b600082821b905092915050565b6000600883026106d57fffffffffffffffffffffffffffffffffffffffffffffffffffffffffffffffff82610698565b6106df8683610698565b95508019841693508086168417925050509392505050565b6000819050919050565b600061071c610717610712846102e3565b6106f7565b6102e3565b9050919050565b6000819050919050565b61073683610701565b61074a61074282610723565b8484546106a5565b825550505050565b600090565b61075f610752565b61076a81848461072d565b505050565b5b8181101561078e57610783600082610757565b600181019050610770565b5050565b601f8211156107d3576107a481610673565b6107ad84610688565b810160208510156107bc578190505b6107d06107c885610688565b83018261076f565b50505b505050565b600082821c905092915050565b60006107f6600019846008026107d8565b1980831691505092915050565b600061080f83836107e5565b9150826002028217905092915050565b61082882610355565b67ffffffffffffffff81111561084157610840610442565b5b61084b8254610642565b610856828285610792565b600060209050601f8311600181146108895760008415610877578287015190505b6108818582610803565b8655506108e9565b601f19841661089786610673565b60005b828110156108bf5784890151825560018201915060208501945060208101905061089a565b868310156108dc57848901516108d8601f8916826107e5565b8355505b6001600288020188555050505b505050505050565b7f4e487b7100000000000000000000000000000000000000000000000000000000600052601160045260246000fd5b600061092b826102e3565b91507fffffffffffffffffffffffffffffffffffffffffffffffffffffffffffffffff820361095d5761095c6108f1565b5b60018201905091905056fea26469706673582212205f17b86ae9105895e435e8da1081c941e0066310411cb27f80b03996df68814a64736f6c63430008130033",
  "linkReferences": {},
  "deployedLinkReferences": {}
}