{
  "_format": "hh-sol-artifact-1",
  "contractName": "Tender",
  "sourceName": "contracts/Tender.sol",
  "abi": [
    {
      "anonymous": false,
      "inputs": [
        {
          "indexed": false,
          "internalType": "uint256",
          "name": "tenderId",
          "type": "uint256"
        },
        {
          "indexed": false,
          "internalType": "uint256",
          "name": "bidderId",
          "type": "uint256"
        }
      ],
      "name": "BidAdded",
      "type": "event"
    },
    {
      "anonymous": false,
      "inputs": [
        {
          "indexed": false,
          "internalType": "uint256",
          "name": "tenderId",
          "type": "uint256"
        },
        {
          "indexed": false,
          "internalType": "uint256",
          "name": "bidderId",
          "type": "uint256"
        },
        {
          "indexed": false,
          "internalType": "bool",
          "name": "dKeyPresent",
          "type": "bool"
        }
      ],
      "name": "DKeyChecked",
      "type": "event"
    },
    {
      "anonymous": false,
      "inputs": [
        {
          "indexed": false,
          "internalType": "uint256",
          "name": "tenderId",
          "type": "uint256"
        },
        {
          "indexed": false,
          "internalType": "uint256",
          "name": "bidderId",
          "type": "uint256"
        },
        {
          "indexed": false,
          "internalType": "string",
          "name": "dKey",
          "type": "string"
        }
      ],
      "name": "DKeyUploaded",
      "type": "event"
    },
    {
      "anonymous": false,
      "inputs": [
        {
          "indexed": false,
          "internalType": "uint256",
          "name": "tenderId",
          "type": "uint256"
        },
        {
          "indexed": false,
          "internalType": "uint256",
          "name": "createdTime",
          "type": "uint256"
        },
        {
          "indexed": false,
          "internalType": "uint256",
          "name": "startTime",
          "type": "uint256"
        },
        {
          "indexed": false,
          "internalType": "uint256",
          "name": "endTime",
          "type": "uint256"
        }
      ],
      "name": "TenderCreated",
      "type": "event"
    },
    {
      "anonymous": false,
      "inputs": [
        {
          "indexed": false,
          "internalType": "uint256",
          "name": "tenderId",
          "type": "uint256"
        },
        {
          "indexed": false,
          "internalType": "uint256[]",
          "name": "bidderIds",
          "type": "uint256[]"
        },
        {
          "indexed": false,
          "internalType": "string[]",
          "name": "externalChecksums",
          "type": "string[]"
        },
        {
          "indexed": false,
          "internalType": "string[]",
          "name": "dKeys",
          "type": "string[]"
        }
      ],
      "name": "TenderKeysRetrieved",
      "type": "event"
    },
    {
      "inputs": [
        {
          "internalType": "uint256",
          "name": "_tenderId",
          "type": "uint256"
        },
        {
          "internalType": "uint256",
          "name": "_startTime",
          "type": "uint256"
        },
        {
          "internalType": "uint256",
          "name": "_endTime",
          "type": "uint256"
        }
      ],
      "name": "createTender",
      "outputs": [],
      "stateMutability": "nonpayable",
      "type": "function"
    },
    {
      "inputs": [
        {
          "internalType": "uint256",
          "name": "_tenderId",
          "type": "uint256"
        },
        {
          "internalType": "uint256",
          "name": "_bidderId",
          "type": "uint256"
        }
      ],
      "name": "dKeyForBidIsPresent",
      "outputs": [],
      "stateMutability": "nonpayable",
      "type": "function"
    },
    {
      "inputs": [
        {
          "internalType": "uint256",
          "name": "_tenderId",
          "type": "uint256"
        }
      ],
      "name": "getBidderIdsForTender",
      "outputs": [
        {
          "internalType": "uint256[]",
          "name": "",
          "type": "uint256[]"
        }
      ],
      "stateMutability": "view",
      "type": "function"
    },
    {
      "inputs": [
        {
          "internalType": "uint256",
          "name": "_tenderId",
          "type": "uint256"
        },
        {
          "internalType": "uint256",
          "name": "_bidderId",
          "type": "uint256"
        }
      ],
      "name": "getChecksumForBid",
      "outputs": [
        {
          "internalType": "string",
          "name": "",
          "type": "string"
        }
      ],
      "stateMutability": "view",
      "type": "function"
    },
    {
      "inputs": [
        {
          "internalType": "uint256",
          "name": "_tenderId",
          "type": "uint256"
        },
        {
          "internalType": "uint256",
          "name": "_bidderId",
          "type": "uint256"
        }
      ],
      "name": "getDKeyForBid",
      "outputs": [
        {
          "internalType": "string",
          "name": "",
          "type": "string"
        }
      ],
      "stateMutability": "view",
      "type": "function"
    },
    {
      "inputs": [],
      "name": "getTenderIds",
      "outputs": [
        {
          "internalType": "uint256[]",
          "name": "",
          "type": "uint256[]"
        }
      ],
      "stateMutability": "view",
      "type": "function"
    },
    {
      "inputs": [
        {
          "internalType": "uint256",
          "name": "_tenderId",
          "type": "uint256"
        },
        {
          "internalType": "uint256",
          "name": "_bidderId",
          "type": "uint256"
        },
        {
          "internalType": "string",
          "name": "_checksum",
          "type": "string"
        }
      ],
      "name": "placeBid",
      "outputs": [],
      "stateMutability": "nonpayable",
      "type": "function"
    },
    {
      "inputs": [
        {
          "internalType": "uint256",
          "name": "_tenderId",
          "type": "uint256"
        },
        {
          "internalType": "uint256[]",
          "name": "_bidderIds",
          "type": "uint256[]"
        },
        {
          "internalType": "string[]",
          "name": "_checksums",
          "type": "string[]"
        }
      ],
      "name": "retrieveDKeysForTender",
      "outputs": [],
      "stateMutability": "nonpayable",
      "type": "function"
    },
    {
      "inputs": [
        {
          "internalType": "uint256",
          "name": "_tenderId",
          "type": "uint256"
        },
        {
          "internalType": "uint256",
          "name": "_bidderId",
          "type": "uint256"
        },
        {
          "internalType": "string",
          "name": "_dKey",
          "type": "string"
        }
      ],
      "name": "saveBidDKey",
      "outputs": [],
      "stateMutability": "nonpayable",
      "type": "function"
    }
  ],
  "bytecode": "0x6080604052607860005534801561001557600080fd5b50612768806100256000396000f3fe608060405234801561001057600080fd5b50600436106100935760003560e01c806344739b521161006657806344739b52146101325780637541e55b1461014e5780637563b2561461016a578063875691ae1461019a578063fa5f20d0146101b657610093565b80630520b7f01461009857806312b25a27146100b45780631f9aaf24146100e45780633375e81614610102575b600080fd5b6100b260048036038101906100ad9190611320565b6101d2565b005b6100ce60048036038101906100c99190611394565b610417565b6040516100db919061147f565b60405180910390f35b6100ec6104ca565b6040516100f9919061147f565b60405180910390f35b61011c600480360381019061011791906114a1565b610522565b6040516101299190611571565b60405180910390f35b61014c60048036038101906101479190611320565b61066d565b005b610168600480360381019061016391906114a1565b6108de565b005b610184600480360381019061017f91906114a1565b610a21565b6040516101919190611571565b60405180910390f35b6101b460048036038101906101af9190611593565b610b6c565b005b6101d060048036038101906101cb9190611692565b610cd4565b005b6101db84611194565b61021a576040517f08c379a000000000000000000000000000000000000000000000000000000000815260040161021190611773565b60405180910390fd5b61022484846111f6565b610263576040517f08c379a000000000000000000000000000000000000000000000000000000000815260040161025a906117df565b60405180910390fd5b60026000858152602001908152602001600020544210156102b9576040517f08c379a00000000000000000000000000000000000000000000000000000000081526004016102b09061184b565b60405180910390fd5b600360008581526020019081526020016000205442101561030f576040517f08c379a0000000000000000000000000000000000000000000000000000000008152600401610306906118b7565b60405180910390fd5b60405160200161031e90611908565b604051602081830303815290604052805190602001208282604051602001610347929190611951565b604051602081830303815290604052805190602001200361039d576040517f08c379a0000000000000000000000000000000000000000000000000000000008152600401610394906119b6565b60405180910390fd5b818160046000878152602001908152602001600020600086815260200190815260200160002060000191826103d3929190611c1c565b507f8278c1895043bdaa1bebe1ef5c95b4d654e0e46b5c4e10fc3864e6520d617647848484846040516104099493929190611d28565b60405180910390a150505050565b606061042282611194565b610461576040517f08c379a000000000000000000000000000000000000000000000000000000000815260040161045890611773565b60405180910390fd5b600560008381526020019081526020016000208054806020026020016040519081016040528092919081815260200182805480156104be57602002820191906000526020600020905b8154815260200190600101908083116104aa575b50505050509050919050565b6060600180548060200260200160405190810160405280929190818152602001828054801561051857602002820191906000526020600020905b815481526020019060010190808311610504575b5050505050905090565b606061052d83611194565b61056c576040517f08c379a000000000000000000000000000000000000000000000000000000000815260040161056390611773565b60405180910390fd5b61057683836111f6565b6105b5576040517f08c379a00000000000000000000000000000000000000000000000000000000081526004016105ac906117df565b60405180910390fd5b60046000848152602001908152602001600020600083815260200190815260200160002060000180546105e790611a3f565b80601f016020809104026020016040519081016040528092919081815260200182805461061390611a3f565b80156106605780601f1061063557610100808354040283529160200191610660565b820191906000526020600020905b81548152906001019060200180831161064357829003601f168201915b5050505050905092915050565b61067684611194565b6106b5576040517f08c379a00000000000000000000000000000000000000000000000000000000081526004016106ac90611773565b60405180910390fd5b6106bf84846111f6565b156106ff576040517f08c379a00000000000000000000000000000000000000000000000000000000081526004016106f690611db4565b60405180910390fd5b6002600085815260200190815260200160002054421015610755576040517f08c379a000000000000000000000000000000000000000000000000000000000815260040161074c9061184b565b60405180910390fd5b600360008581526020019081526020016000205442106107aa576040517f08c379a00000000000000000000000000000000000000000000000000000000081526004016107a190611e20565b60405180910390fd5b60056000858152602001908152602001600020839080600181540180825580915050600190039060005260206000200160009091909190915055604051806040016040528060405180602001604052806000815250815260200183838080601f016020809104026020016040519081016040528093929190818152602001838380828437600081840152601f19601f8201169050808301925050505050505081525060046000868152602001908152602001600020600085815260200190815260200160002060008201518160000190816108859190611e40565b50602082015181600101908161089b9190611e40565b509050507f12d0d4379caab65a5fb263863b61c9678ee940414e7ca9e082b234f02da32d6f84846040516108d0929190611f12565b60405180910390a150505050565b6108e782611194565b610926576040517f08c379a000000000000000000000000000000000000000000000000000000000815260040161091d90611773565b60405180910390fd5b61093082826111f6565b61096f576040517f08c379a0000000000000000000000000000000000000000000000000000000008152600401610966906117df565b60405180910390fd5b7f05d2044d3ce82a05c9f9c2e0020897d44f5ef1a53ee3496939497dd6f151b9c982826040516020016109a190611908565b604051602081830303815290604052805190602001206004600087815260200190815260200160002060008681526020019081526020016000206000016040516020016109ee9190611fbe565b604051602081830303815290604052805190602001201415604051610a1593929190611ff0565b60405180910390a15050565b6060610a2c83611194565b610a6b576040517f08c379a0000000000000000000000000000000000000000000000000000000008152600401610a6290611773565b60405180910390fd5b610a7583836111f6565b610ab4576040517f08c379a0000000000000000000000000000000000000000000000000000000008152600401610aab906117df565b60405180910390fd5b6004600084815260200190815260200160002060008381526020019081526020016000206001018054610ae690611a3f565b80601f0160208091040260200160405190810160405280929190818152602001828054610b1290611a3f565b8015610b5f5780601f10610b3457610100808354040283529160200191610b5f565b820191906000526020600020905b815481529060010190602001808311610b4257829003601f168201915b5050505050905092915050565b610b7583611194565b15610bb5576040517f08c379a0000000000000000000000000000000000000000000000000000000008152600401610bac90612073565b60405180910390fd5b814210610bf7576040517f08c379a0000000000000000000000000000000000000000000000000000000008152600401610bee906120df565b60405180910390fd5b804210610c39576040517f08c379a0000000000000000000000000000000000000000000000000000000008152600401610c309061214b565b60405180910390fd5b60018390806001815401808255809150506001900390600052602060002001600090919091909150558160026000858152602001908152602001600020819055508060036000858152602001908152602001600020819055507f4a9dc85c516c580603e1d055caeb1fffb45a55774e0bbcf8c85a48b208b70d7a83428484604051610cc7949392919061216b565b60405180910390a1505050565b610cdd85611194565b610d1c576040517f08c379a0000000000000000000000000000000000000000000000000000000008152600401610d1390611773565b60405180910390fd5b6002600086815260200190815260200160002054421015610d72576040517f08c379a0000000000000000000000000000000000000000000000000000000008152600401610d699061184b565b60405180910390fd5b6003600086815260200190815260200160002054421015610dc8576040517f08c379a0000000000000000000000000000000000000000000000000000000008152600401610dbf906118b7565b60405180910390fd5b6000546003600087815260200190815260200160002054610de991906121df565b421015610e2b576040517f08c379a0000000000000000000000000000000000000000000000000000000008152600401610e229061225f565b60405180910390fd5b818190508484905014610e73576040517f08c379a0000000000000000000000000000000000000000000000000000000008152600401610e6a906122cb565b60405180910390fd5b60008484905067ffffffffffffffff811115610e9257610e916119e1565b5b604051908082528060200260200182016040528015610ec557816020015b6060815260200190600190039081610eb05790505b50905060005b8585905081101561114a576000868683818110610eeb57610eea6122eb565b5b9050602002013590506000600460008a815260200190815260200160002060008381526020019081526020016000206001018054610f2890611a3f565b80601f0160208091040260200160405190810160405280929190818152602001828054610f5490611a3f565b8015610fa15780601f10610f7657610100808354040283529160200191610fa1565b820191906000526020600020905b815481529060010190602001808311610f8457829003601f168201915b50505050509050610fb289836111f6565b801561102e575080604051602001610fca919061234b565b60405160208183030381529060405280519060200120868685818110610ff357610ff26122eb565b5b90506020028101906110059190612371565b604051602001611016929190611951565b60405160208183030381529060405280519060200120145b1561110657600460008a81526020019081526020016000206000838152602001908152602001600020600001805461106590611a3f565b80601f016020809104026020016040519081016040528092919081815260200182805461109190611a3f565b80156110de5780601f106110b3576101008083540402835291602001916110de565b820191906000526020600020905b8154815290600101906020018083116110c157829003601f168201915b50505050508484815181106110f6576110f56122eb565b5b6020026020010181905250611135565b60405180602001604052806000815250848481518110611129576111286122eb565b5b60200260200101819052505b50508080611142906123d4565b915050610ecb565b507ff647d0d307f0958dc0400175d98cd20d4ae0298d33465a32f240d7fcf510bcff868686868686604051611184969594939291906126d4565b60405180910390a1505050505050565b600080600090505b6001805490508110156111eb57600181815481106111bd576111bc6122eb565b5b906000526020600020015483036111d85760019150506111f1565b80806111e3906123d4565b91505061119c565b50600090505b919050565b600080600090505b600560008581526020019081526020016000208054905081101561126f57600560008581526020019081526020016000208181548110611241576112406122eb565b5b9060005260206000200154830361125c576001915050611275565b8080611267906123d4565b9150506111fe565b50600090505b92915050565b600080fd5b600080fd5b6000819050919050565b61129881611285565b81146112a357600080fd5b50565b6000813590506112b58161128f565b92915050565b600080fd5b600080fd5b600080fd5b60008083601f8401126112e0576112df6112bb565b5b8235905067ffffffffffffffff8111156112fd576112fc6112c0565b5b602083019150836001820283011115611319576113186112c5565b5b9250929050565b6000806000806060858703121561133a5761133961127b565b5b6000611348878288016112a6565b9450506020611359878288016112a6565b935050604085013567ffffffffffffffff81111561137a57611379611280565b5b611386878288016112ca565b925092505092959194509250565b6000602082840312156113aa576113a961127b565b5b60006113b8848285016112a6565b91505092915050565b600081519050919050565b600082825260208201905092915050565b6000819050602082019050919050565b6113f681611285565b82525050565b600061140883836113ed565b60208301905092915050565b6000602082019050919050565b600061142c826113c1565b61143681856113cc565b9350611441836113dd565b8060005b8381101561147257815161145988826113fc565b975061146483611414565b925050600181019050611445565b5085935050505092915050565b600060208201905081810360008301526114998184611421565b905092915050565b600080604083850312156114b8576114b761127b565b5b60006114c6858286016112a6565b92505060206114d7858286016112a6565b9150509250929050565b600081519050919050565b600082825260208201905092915050565b60005b8381101561151b578082015181840152602081019050611500565b60008484015250505050565b6000601f19601f8301169050919050565b6000611543826114e1565b61154d81856114ec565b935061155d8185602086016114fd565b61156681611527565b840191505092915050565b6000602082019050818103600083015261158b8184611538565b905092915050565b6000806000606084860312156115ac576115ab61127b565b5b60006115ba868287016112a6565b93505060206115cb868287016112a6565b92505060406115dc868287016112a6565b9150509250925092565b60008083601f8401126115fc576115fb6112bb565b5b8235905067ffffffffffffffff811115611619576116186112c0565b5b602083019150836020820283011115611635576116346112c5565b5b9250929050565b60008083601f840112611652576116516112bb565b5b8235905067ffffffffffffffff81111561166f5761166e6112c0565b5b60208301915083602082028301111561168b5761168a6112c5565b5b9250929050565b6000806000806000606086880312156116ae576116ad61127b565b5b60006116bc888289016112a6565b955050602086013567ffffffffffffffff8111156116dd576116dc611280565b5b6116e9888289016115e6565b9450945050604086013567ffffffffffffffff81111561170c5761170b611280565b5b6117188882890161163c565b92509250509295509295909350565b7f496e76616c69642054656e646572204944000000000000000000000000000000600082015250565b600061175d6011836114ec565b915061176882611727565b602082019050919050565b6000602082019050818103600083015261178c81611750565b9050919050565b7f496e76616c696420426964646572204944000000000000000000000000000000600082015250565b60006117c96011836114ec565b91506117d482611793565b602082019050919050565b600060208201905081810360008301526117f8816117bc565b9050919050565b7f54656e646572206973206e6f7420737461727465640000000000000000000000600082015250565b60006118356015836114ec565b9150611840826117ff565b602082019050919050565b6000602082019050818103600083015261186481611828565b9050919050565b7f54656e64657220697320696e2042696464696e67207068617365000000000000600082015250565b60006118a1601a836114ec565b91506118ac8261186b565b602082019050919050565b600060208201905081810360008301526118d081611894565b9050919050565b600081905092915050565b50565b60006118f26000836118d7565b91506118fd826118e2565b600082019050919050565b6000611913826118e5565b9150819050919050565b82818337600083830152505050565b600061193883856118d7565b935061194583858461191d565b82840190509392505050565b600061195e82848661192c565b91508190509392505050565b7f44656372797074696f6e206b657920697320656d707479000000000000000000600082015250565b60006119a06017836114ec565b91506119ab8261196a565b602082019050919050565b600060208201905081810360008301526119cf81611993565b9050919050565b600082905092915050565b7f4e487b7100000000000000000000000000000000000000000000000000000000600052604160045260246000fd5b7f4e487b7100000000000000000000000000000000000000000000000000000000600052602260045260246000fd5b60006002820490506001821680611a5757607f821691505b602082108103611a6a57611a69611a10565b5b50919050565b60008190508160005260206000209050919050565b60006020601f8301049050919050565b600082821b905092915050565b600060088302611ad27fffffffffffffffffffffffffffffffffffffffffffffffffffffffffffffffff82611a95565b611adc8683611a95565b95508019841693508086168417925050509392505050565b6000819050919050565b6000611b19611b14611b0f84611285565b611af4565b611285565b9050919050565b6000819050919050565b611b3383611afe565b611b47611b3f82611b20565b848454611aa2565b825550505050565b600090565b611b5c611b4f565b611b67818484611b2a565b505050565b5b81811015611b8b57611b80600082611b54565b600181019050611b6d565b5050565b601f821115611bd057611ba181611a70565b611baa84611a85565b81016020851015611bb9578190505b611bcd611bc585611a85565b830182611b6c565b50505b505050565b600082821c905092915050565b6000611bf360001984600802611bd5565b1980831691505092915050565b6000611c0c8383611be2565b9150826002028217905092915050565b611c2683836119d6565b67ffffffffffffffff811115611c3f57611c3e6119e1565b5b611c498254611a3f565b611c54828285611b8f565b6000601f831160018114611c835760008415611c71578287013590505b611c7b8582611c00565b865550611ce3565b601f198416611c9186611a70565b60005b82811015611cb957848901358255600182019150602085019450602081019050611c94565b86831015611cd65784890135611cd2601f891682611be2565b8355505b6001600288020188555050505b50505050505050565b611cf581611285565b82525050565b6000611d0783856114ec565b9350611d1483858461191d565b611d1d83611527565b840190509392505050565b6000606082019050611d3d6000830187611cec565b611d4a6020830186611cec565b8181036040830152611d5d818486611cfb565b905095945050505050565b7f42696420616c7265616479206578697374730000000000000000000000000000600082015250565b6000611d9e6012836114ec565b9150611da982611d68565b602082019050919050565b60006020820190508181036000830152611dcd81611d91565b9050919050565b7f54656e6465722068617320656e64656400000000000000000000000000000000600082015250565b6000611e0a6010836114ec565b9150611e1582611dd4565b602082019050919050565b60006020820190508181036000830152611e3981611dfd565b9050919050565b611e49826114e1565b67ffffffffffffffff811115611e6257611e616119e1565b5b611e6c8254611a3f565b611e77828285611b8f565b600060209050601f831160018114611eaa5760008415611e98578287015190505b611ea28582611c00565b865550611f0a565b601f198416611eb886611a70565b60005b82811015611ee057848901518255600182019150602085019450602081019050611ebb565b86831015611efd5784890151611ef9601f891682611be2565b8355505b6001600288020188555050505b505050505050565b6000604082019050611f276000830185611cec565b611f346020830184611cec565b9392505050565b60008154611f4881611a3f565b611f5281866118d7565b94506001821660008114611f6d5760018114611f8257611fb5565b60ff1983168652811515820286019350611fb5565b611f8b85611a70565b60005b83811015611fad57815481890152600182019150602081019050611f8e565b838801955050505b50505092915050565b6000611fca8284611f3b565b915081905092915050565b60008115159050919050565b611fea81611fd5565b82525050565b60006060820190506120056000830186611cec565b6120126020830185611cec565b61201f6040830184611fe1565b949350505050565b7f54656e64657220616c7265616479206578697374730000000000000000000000600082015250565b600061205d6015836114ec565b915061206882612027565b602082019050919050565b6000602082019050818103600083015261208c81612050565b9050919050565b7f496e76616c69642053746172742054696d650000000000000000000000000000600082015250565b60006120c96012836114ec565b91506120d482612093565b602082019050919050565b600060208201905081810360008301526120f8816120bc565b9050919050565b7f496e76616c696420456e642054696d6500000000000000000000000000000000600082015250565b60006121356010836114ec565b9150612140826120ff565b602082019050919050565b6000602082019050818103600083015261216481612128565b9050919050565b60006080820190506121806000830187611cec565b61218d6020830186611cec565b61219a6040830185611cec565b6121a76060830184611cec565b95945050505050565b7f4e487b7100000000000000000000000000000000000000000000000000000000600052601160045260246000fd5b60006121ea82611285565b91506121f583611285565b925082820190508082111561220d5761220c6121b0565b5b92915050565b7f54656e64657220697320696e20566572696669636174696f6e20706861736500600082015250565b6000612249601f836114ec565b915061225482612213565b602082019050919050565b600060208201905081810360008301526122788161223c565b9050919050565b7f417272617973206c656e677468206d69736d6174636800000000000000000000600082015250565b60006122b56016836114ec565b91506122c08261227f565b602082019050919050565b600060208201905081810360008301526122e4816122a8565b9050919050565b7f4e487b7100000000000000000000000000000000000000000000000000000000600052603260045260246000fd5b6000612325826114e1565b61232f81856118d7565b935061233f8185602086016114fd565b80840191505092915050565b6000612357828461231a565b915081905092915050565b600080fd5b600080fd5b600080fd5b6000808335600160200384360303811261238e5761238d612362565b5b80840192508235915067ffffffffffffffff8211156123b0576123af612367565b5b6020830192506001820236038313156123cc576123cb61236c565b5b509250929050565b60006123df82611285565b91507fffffffffffffffffffffffffffffffffffffffffffffffffffffffffffffffff8203612411576124106121b0565b5b600182019050919050565b600080fd5b82818337505050565b600061243683856113cc565b93507f07ffffffffffffffffffffffffffffffffffffffffffffffffffffffffffffff8311156124695761246861241c565b5b60208302925061247a838584612421565b82840190509392505050565b600082825260208201905092915050565b6000819050919050565b600082825260208201905092915050565b60006124be83856124a1565b93506124cb83858461191d565b6124d483611527565b840190509392505050565b60006124ec8484846124b2565b90509392505050565b600080fd5b600080fd5b600080fd5b60008083356001602003843603038112612521576125206124ff565b5b83810192508235915060208301925067ffffffffffffffff821115612549576125486124f5565b5b60018202360383131561255f5761255e6124fa565b5b509250929050565b6000602082019050919050565b60006125808385612486565b93508360208402850161259284612497565b8060005b878110156125d85784840389526125ad8284612504565b6125b88682846124df565b95506125c384612567565b935060208b019a505050600181019050612596565b50829750879450505050509392505050565b600081519050919050565b6000819050602082019050919050565b6000612610826114e1565b61261a81856124a1565b935061262a8185602086016114fd565b61263381611527565b840191505092915050565b600061264a8383612605565b905092915050565b6000602082019050919050565b600061266a826125ea565b6126748185612486565b935083602082028501612686856125f5565b8060005b858110156126c257848403895281516126a3858261263e565b94506126ae83612652565b925060208a0199505060018101905061268a565b50829750879550505050505092915050565b60006080820190506126e96000830189611cec565b81810360208301526126fc81878961242a565b90508181036040830152612711818587612574565b90508181036060830152612725818461265f565b905097965050505050505056fea2646970667358221220f1f3175fc2b3b5639ac7480ed8946dae9e1e5aa80db29acfdebadbcd53e1c88064736f6c63430008130033",
  "linkReferences": {},
  "deployedLinkReferences": {}
}