{
  "_format": "hh-sol-artifact-1",
  "contractName": "Tender",
  "sourceName": "contracts/Tender.sol",
  "abi": [
    {
      "anonymous": false,
      "inputs": [
        {
          "indexed": false,
          "internalType": "uint256",
          "name": "id",
          "type": "uint256"
        },
        {
          "indexed": false,
          "internalType": "string",
          "name": "name",
          "type": "string"
        },
        {
          "indexed": false,
          "internalType": "string",
          "name": "description",
          "type": "string"
        },
        {
          "indexed": false,
          "internalType": "uint256",
          "name": "endTime",
          "type": "uint256"
        }
      ],
      "name": "TenderPlaced",
      "type": "event"
    },
    {
      "inputs": [
        {
          "internalType": "string",
          "name": "_name",
          "type": "string"
        },
        {
          "internalType": "string",
          "name": "_description",
          "type": "string"
        },
        {
          "internalType": "uint256",
          "name": "_endTime",
          "type": "uint256"
        }
      ],
      "name": "placeTender",
      "outputs": [],
      "stateMutability": "nonpayable",
      "type": "function"
    },
    {
      "inputs": [
        {
          "internalType": "uint256",
          "name": "",
          "type": "uint256"
        }
      ],
      "name": "tenders",
      "outputs": [
        {
          "internalType": "uint256",
          "name": "id",
          "type": "uint256"
        },
        {
          "internalType": "string",
          "name": "name",
          "type": "string"
        },
        {
          "internalType": "string",
          "name": "description",
          "type": "string"
        },
        {
          "internalType": "uint256",
          "name": "endTime",
          "type": "uint256"
        }
      ],
      "stateMutability": "view",
      "type": "function"
    },
    {
      "inputs": [],
      "name": "tendersCount",
      "outputs": [
        {
          "internalType": "uint256",
          "name": "",
          "type": "uint256"
        }
      ],
      "stateMutability": "view",
      "type": "function"
    }
  ],
  "bytecode": "0x608060405234801561001057600080fd5b50610a4c806100206000396000f3fe608060405234801561001057600080fd5b50600436106100415760003560e01c8063465e1def146100465780635cd4e14f146100795780638e48779c14610095575b600080fd5b610060600480360381019061005b919061035b565b6100b3565b6040516100709493929190610427565b60405180910390f35b610093600480360381019061008e91906105af565b6101f3565b005b61009d61030b565b6040516100aa919061063a565b60405180910390f35b60006020528060005260406000206000915090508060000154908060010180546100dc90610684565b80601f016020809104026020016040519081016040528092919081815260200182805461010890610684565b80156101555780601f1061012a57610100808354040283529160200191610155565b820191906000526020600020905b81548152906001019060200180831161013857829003601f168201915b50505050509080600201805461016a90610684565b80601f016020809104026020016040519081016040528092919081815260200182805461019690610684565b80156101e35780601f106101b8576101008083540402835291602001916101e3565b820191906000526020600020905b8154815290600101906020018083116101c657829003601f168201915b5050505050908060030154905084565b428111610235576040517f08c379a000000000000000000000000000000000000000000000000000000000815260040161022c90610701565b60405180910390fd5b6040518060800160405280600154815260200184815260200183815260200182815250600080600154815260200190815260200160002060008201518160000155602082015181600101908161028b91906108cd565b5060408201518160020190816102a191906108cd565b50606082015181600301559050507f2acc887647506a077692bac9e4b802640cf2e457a92a018cc4cff80b5334184a6001548484846040516102e69493929190610427565b60405180910390a160016000815480929190610301906109ce565b9190505550505050565b60015481565b6000604051905090565b600080fd5b600080fd5b6000819050919050565b61033881610325565b811461034357600080fd5b50565b6000813590506103558161032f565b92915050565b6000602082840312156103715761037061031b565b5b600061037f84828501610346565b91505092915050565b61039181610325565b82525050565b600081519050919050565b600082825260208201905092915050565b60005b838110156103d15780820151818401526020810190506103b6565b60008484015250505050565b6000601f19601f8301169050919050565b60006103f982610397565b61040381856103a2565b93506104138185602086016103b3565b61041c816103dd565b840191505092915050565b600060808201905061043c6000830187610388565b818103602083015261044e81866103ee565b9050818103604083015261046281856103ee565b90506104716060830184610388565b95945050505050565b600080fd5b600080fd5b7f4e487b7100000000000000000000000000000000000000000000000000000000600052604160045260246000fd5b6104bc826103dd565b810181811067ffffffffffffffff821117156104db576104da610484565b5b80604052505050565b60006104ee610311565b90506104fa82826104b3565b919050565b600067ffffffffffffffff82111561051a57610519610484565b5b610523826103dd565b9050602081019050919050565b82818337600083830152505050565b600061055261054d846104ff565b6104e4565b90508281526020810184848401111561056e5761056d61047f565b5b610579848285610530565b509392505050565b600082601f8301126105965761059561047a565b5b81356105a684826020860161053f565b91505092915050565b6000806000606084860312156105c8576105c761031b565b5b600084013567ffffffffffffffff8111156105e6576105e5610320565b5b6105f286828701610581565b935050602084013567ffffffffffffffff81111561061357610612610320565b5b61061f86828701610581565b925050604061063086828701610346565b9150509250925092565b600060208201905061064f6000830184610388565b92915050565b7f4e487b7100000000000000000000000000000000000000000000000000000000600052602260045260246000fd5b6000600282049050600182168061069c57607f821691505b6020821081036106af576106ae610655565b5b50919050565b7f456e642074696d652073686f756c6420626520696e2074686520667574757265600082015250565b60006106eb6020836103a2565b91506106f6826106b5565b602082019050919050565b6000602082019050818103600083015261071a816106de565b9050919050565b60008190508160005260206000209050919050565b60006020601f8301049050919050565b600082821b905092915050565b6000600883026107837fffffffffffffffffffffffffffffffffffffffffffffffffffffffffffffffff82610746565b61078d8683610746565b95508019841693508086168417925050509392505050565b6000819050919050565b60006107ca6107c56107c084610325565b6107a5565b610325565b9050919050565b6000819050919050565b6107e4836107af565b6107f86107f0826107d1565b848454610753565b825550505050565b600090565b61080d610800565b6108188184846107db565b505050565b5b8181101561083c57610831600082610805565b60018101905061081e565b5050565b601f8211156108815761085281610721565b61085b84610736565b8101602085101561086a578190505b61087e61087685610736565b83018261081d565b50505b505050565b600082821c905092915050565b60006108a460001984600802610886565b1980831691505092915050565b60006108bd8383610893565b9150826002028217905092915050565b6108d682610397565b67ffffffffffffffff8111156108ef576108ee610484565b5b6108f98254610684565b610904828285610840565b600060209050601f8311600181146109375760008415610925578287015190505b61092f85826108b1565b865550610997565b601f19841661094586610721565b60005b8281101561096d57848901518255600182019150602085019450602081019050610948565b8683101561098a5784890151610986601f891682610893565b8355505b6001600288020188555050505b505050505050565b7f4e487b7100000000000000000000000000000000000000000000000000000000600052601160045260246000fd5b60006109d982610325565b91507fffffffffffffffffffffffffffffffffffffffffffffffffffffffffffffffff8203610a0b57610a0a61099f565b5b60018201905091905056fea264697066735822122068ef2fe34c6a95476bffad2772ef760fc4e8d1475563959b9707770590b1679664736f6c63430008130033",
  "linkReferences": {},
  "deployedLinkReferences": {}
}